{
  "contracts/SimpWars.sol": {
    "Pricing": {
      "abi": [
        {
          "inputs": [
            {
              "internalType": "uint256",
              "name": "streamerId",
              "type": "uint256"
            }
          ],
          "name": "getPrice",
          "outputs": [
            {
              "internalType": "uint256",
              "name": "",
              "type": "uint256"
            }
          ],
          "stateMutability": "view",
          "type": "function"
        },
        {
          "inputs": [
            {
              "internalType": "uint256",
              "name": "streamerId",
              "type": "uint256"
            }
          ],
          "name": "price",
          "outputs": [
            {
              "internalType": "uint256",
              "name": "",
              "type": "uint256"
            }
          ],
          "stateMutability": "view",
          "type": "function"
        },
        {
          "inputs": [
            {
              "internalType": "uint256",
              "name": "streamerId",
              "type": "uint256"
            },
            {
              "internalType": "uint256",
              "name": "blocknumber",
              "type": "uint256"
            }
          ],
          "name": "price",
          "outputs": [
            {
              "internalType": "uint256",
              "name": "",
              "type": "uint256"
            }
          ],
          "stateMutability": "pure",
          "type": "function"
        }
      ],
      "evm": {
        "bytecode": {
          "linkReferences": {},
          "object": "608060405234801561001057600080fd5b506101e1806100206000396000f3fe608060405234801561001057600080fd5b50600436106100415760003560e01c806326a49e3714610046578063487a239514610088578063e7572230146100d4575b600080fd5b6100726004803603602081101561005c57600080fd5b8101908080359060200190929190505050610116565b6040518082815260200191505060405180910390f35b6100be6004803603604081101561009e57600080fd5b810190808035906020019092919080359060200190929190505050610129565b6040518082815260200191505060405180910390f35b610100600480360360208110156100ea57600080fd5b8101908080359060200190929190505050610176565b6040518082815260200191505060405180910390f35b60006101228243610129565b9050919050565b6000674563918244f40000838360405160200180838152602001828152602001925050506040516020818303038152906040528051906020012060001c8161016d57fe5b06905092915050565b60008061018283610116565b905060006101938460014303610129565b9050818110156101a1578091505b819250505091905056fea2646970667358221220400e1a4d303de916c2ccc51068ee8fbfa1bc6cd8c75e77742446f646d2e95e4b64736f6c63430007030033",
          "opcodes": "PUSH1 0x80 PUSH1 0x40 MSTORE CALLVALUE DUP1 ISZERO PUSH2 0x10 JUMPI PUSH1 0x0 DUP1 REVERT JUMPDEST POP PUSH2 0x1E1 DUP1 PUSH2 0x20 PUSH1 0x0 CODECOPY PUSH1 0x0 RETURN INVALID PUSH1 0x80 PUSH1 0x40 MSTORE CALLVALUE DUP1 ISZERO PUSH2 0x10 JUMPI PUSH1 0x0 DUP1 REVERT JUMPDEST POP PUSH1 0x4 CALLDATASIZE LT PUSH2 0x41 JUMPI PUSH1 0x0 CALLDATALOAD PUSH1 0xE0 SHR DUP1 PUSH4 0x26A49E37 EQ PUSH2 0x46 JUMPI DUP1 PUSH4 0x487A2395 EQ PUSH2 0x88 JUMPI DUP1 PUSH4 0xE7572230 EQ PUSH2 0xD4 JUMPI JUMPDEST PUSH1 0x0 DUP1 REVERT JUMPDEST PUSH2 0x72 PUSH1 0x4 DUP1 CALLDATASIZE SUB PUSH1 0x20 DUP2 LT ISZERO PUSH2 0x5C JUMPI PUSH1 0x0 DUP1 REVERT JUMPDEST DUP2 ADD SWAP1 DUP1 DUP1 CALLDATALOAD SWAP1 PUSH1 0x20 ADD SWAP1 SWAP3 SWAP2 SWAP1 POP POP POP PUSH2 0x116 JUMP JUMPDEST PUSH1 0x40 MLOAD DUP1 DUP3 DUP2 MSTORE PUSH1 0x20 ADD SWAP2 POP POP PUSH1 0x40 MLOAD DUP1 SWAP2 SUB SWAP1 RETURN JUMPDEST PUSH2 0xBE PUSH1 0x4 DUP1 CALLDATASIZE SUB PUSH1 0x40 DUP2 LT ISZERO PUSH2 0x9E JUMPI PUSH1 0x0 DUP1 REVERT JUMPDEST DUP2 ADD SWAP1 DUP1 DUP1 CALLDATALOAD SWAP1 PUSH1 0x20 ADD SWAP1 SWAP3 SWAP2 SWAP1 DUP1 CALLDATALOAD SWAP1 PUSH1 0x20 ADD SWAP1 SWAP3 SWAP2 SWAP1 POP POP POP PUSH2 0x129 JUMP JUMPDEST PUSH1 0x40 MLOAD DUP1 DUP3 DUP2 MSTORE PUSH1 0x20 ADD SWAP2 POP POP PUSH1 0x40 MLOAD DUP1 SWAP2 SUB SWAP1 RETURN JUMPDEST PUSH2 0x100 PUSH1 0x4 DUP1 CALLDATASIZE SUB PUSH1 0x20 DUP2 LT ISZERO PUSH2 0xEA JUMPI PUSH1 0x0 DUP1 REVERT JUMPDEST DUP2 ADD SWAP1 DUP1 DUP1 CALLDATALOAD SWAP1 PUSH1 0x20 ADD SWAP1 SWAP3 SWAP2 SWAP1 POP POP POP PUSH2 0x176 JUMP JUMPDEST PUSH1 0x40 MLOAD DUP1 DUP3 DUP2 MSTORE PUSH1 0x20 ADD SWAP2 POP POP PUSH1 0x40 MLOAD DUP1 SWAP2 SUB SWAP1 RETURN JUMPDEST PUSH1 0x0 PUSH2 0x122 DUP3 NUMBER PUSH2 0x129 JUMP JUMPDEST SWAP1 POP SWAP2 SWAP1 POP JUMP JUMPDEST PUSH1 0x0 PUSH8 0x4563918244F40000 DUP4 DUP4 PUSH1 0x40 MLOAD PUSH1 0x20 ADD DUP1 DUP4 DUP2 MSTORE PUSH1 0x20 ADD DUP3 DUP2 MSTORE PUSH1 0x20 ADD SWAP3 POP POP POP PUSH1 0x40 MLOAD PUSH1 0x20 DUP2 DUP4 SUB SUB DUP2 MSTORE SWAP1 PUSH1 0x40 MSTORE DUP1 MLOAD SWAP1 PUSH1 0x20 ADD KECCAK256 PUSH1 0x0 SHR DUP2 PUSH2 0x16D JUMPI INVALID JUMPDEST MOD SWAP1 POP SWAP3 SWAP2 POP POP JUMP JUMPDEST PUSH1 0x0 DUP1 PUSH2 0x182 DUP4 PUSH2 0x116 JUMP JUMPDEST SWAP1 POP PUSH1 0x0 PUSH2 0x193 DUP5 PUSH1 0x1 NUMBER SUB PUSH2 0x129 JUMP JUMPDEST SWAP1 POP DUP2 DUP2 LT ISZERO PUSH2 0x1A1 JUMPI DUP1 SWAP2 POP JUMPDEST DUP2 SWAP3 POP POP POP SWAP2 SWAP1 POP JUMP INVALID LOG2 PUSH5 0x6970667358 0x22 SLT KECCAK256 BLOCKHASH 0xE BYTE 0x4D ADDRESS RETURNDATASIZE 0xE9 AND 0xC2 0xCC 0xC5 LT PUSH9 0xEE8FBFA1BC6CD8C75E PUSH24 0x742446F646D2E95E4B64736F6C6343000703003300000000 "
        },
        "methodIdentifiers": {
          "getPrice(uint256)": "e7572230",
          "price(uint256)": "26a49e37",
          "price(uint256,uint256)": "487a2395"
        }
      }
    }
  }
}