{
  "_format": "hh-sol-artifact-1",
  "contractName": "Pricing",
  "sourceName": "contracts/SimpWars.sol",
  "abi": [
    {
      "inputs": [
        {
          "internalType": "uint256",
          "name": "streamerId",
          "type": "uint256"
        }
      ],
      "name": "getPrice",
      "outputs": [
        {
          "internalType": "uint256",
          "name": "",
          "type": "uint256"
        }
      ],
      "stateMutability": "view",
      "type": "function"
    },
    {
      "inputs": [
        {
          "internalType": "uint256",
          "name": "streamerId",
          "type": "uint256"
        }
      ],
      "name": "price",
      "outputs": [
        {
          "internalType": "uint256",
          "name": "",
          "type": "uint256"
        }
      ],
      "stateMutability": "view",
      "type": "function"
    },
    {
      "inputs": [
        {
          "internalType": "uint256",
          "name": "streamerId",
          "type": "uint256"
        },
        {
          "internalType": "uint256",
          "name": "blocknumber",
          "type": "uint256"
        }
      ],
      "name": "price",
      "outputs": [
        {
          "internalType": "uint256",
          "name": "",
          "type": "uint256"
        }
      ],
      "stateMutability": "pure",
      "type": "function"
    }
  ],
  "bytecode": "0x608060405234801561001057600080fd5b506101e1806100206000396000f3fe608060405234801561001057600080fd5b50600436106100415760003560e01c806326a49e3714610046578063487a239514610088578063e7572230146100d4575b600080fd5b6100726004803603602081101561005c57600080fd5b8101908080359060200190929190505050610116565b6040518082815260200191505060405180910390f35b6100be6004803603604081101561009e57600080fd5b810190808035906020019092919080359060200190929190505050610129565b6040518082815260200191505060405180910390f35b610100600480360360208110156100ea57600080fd5b8101908080359060200190929190505050610176565b6040518082815260200191505060405180910390f35b60006101228243610129565b9050919050565b6000674563918244f40000838360405160200180838152602001828152602001925050506040516020818303038152906040528051906020012060001c8161016d57fe5b06905092915050565b60008061018283610116565b905060006101938460014303610129565b9050818110156101a1578091505b819250505091905056fea2646970667358221220562c2b7d4efaff72c0bfd22d63c99d2f961f048f3a0fc11d5cb75cb98c77f84464736f6c63430007030033",
  "linkReferences": {},
  "deployedLinkReferences": {}
}