{
  "_format": "hh-sol-artifact-1",
  "contractName": "Pricing",
  "sourceName": "contracts/SimpWars.sol",
  "abi": [
    {
      "inputs": [
        {
          "internalType": "uint256",
          "name": "a",
          "type": "uint256"
        },
        {
          "internalType": "uint256",
          "name": "m",
          "type": "uint256"
        }
      ],
      "name": "ceil",
      "outputs": [
        {
          "internalType": "uint256",
          "name": "",
          "type": "uint256"
        }
      ],
      "stateMutability": "pure",
      "type": "function"
    },
    {
      "inputs": [
        {
          "internalType": "uint256",
          "name": "simpID",
          "type": "uint256"
        }
      ],
      "name": "getPrice",
      "outputs": [
        {
          "internalType": "uint256",
          "name": "",
          "type": "uint256"
        }
      ],
      "stateMutability": "view",
      "type": "function"
    },
    {
      "inputs": [
        {
          "internalType": "uint256",
          "name": "streamerID",
          "type": "uint256"
        }
      ],
      "name": "price",
      "outputs": [
        {
          "internalType": "uint256",
          "name": "",
          "type": "uint256"
        }
      ],
      "stateMutability": "view",
      "type": "function"
    },
    {
      "inputs": [
        {
          "internalType": "uint256",
          "name": "streamerID",
          "type": "uint256"
        },
        {
          "internalType": "uint256",
          "name": "blocknumber",
          "type": "uint256"
        }
      ],
      "name": "price",
      "outputs": [
        {
          "internalType": "uint256",
          "name": "",
          "type": "uint256"
        }
      ],
      "stateMutability": "view",
      "type": "function"
    }
  ],
  "bytecode": "0x608060405234801561001057600080fd5b50610254806100206000396000f3fe608060405234801561001057600080fd5b506004361061004c5760003560e01c806326a49e3714610051578063487a2395146100935780638587be6e146100df578063e75722301461012b575b600080fd5b61007d6004803603602081101561006757600080fd5b810190808035906020019092919050505061016d565b6040518082815260200191505060405180910390f35b6100c9600480360360408110156100a957600080fd5b810190808035906020019092919080359060200190929190505050610180565b6040518082815260200191505060405180910390f35b610115600480360360408110156100f557600080fd5b8101908080359060200190929190803590602001909291905050506101ce565b6040518082815260200191505060405180910390f35b6101576004803603602081101561014157600080fd5b81019080803590602001909291905050506101e9565b6040518082815260200191505060405180910390f35b60006101798243610180565b9050919050565b6000674563918244f4000083834060405160200180838152602001828152602001925050506040516020818303038152906040528051906020012060001c816101c557fe5b06905092915050565b60008182600184860103816101df57fe5b0402905092915050565b6000806101f58361016d565b905060006102068460014303610180565b905081811015610214578091505b819250505091905056fea264697066735822122066af578701e8fc1ff7c1e2f03c62707f5b74ae4ac3e727b90e4090370235834f64736f6c63430007030033",
  "linkReferences": {},
  "deployedLinkReferences": {}
}