{
  "_format": "hh-sol-artifact-1",
  "contractName": "SimpWars",
  "sourceName": "contracts/SimpWars.sol",
  "abi": [
    {
      "inputs": [
        {
          "internalType": "address",
          "name": "_tokenAddress",
          "type": "address"
        }
      ],
      "stateMutability": "nonpayable",
      "type": "constructor"
    },
    {
      "anonymous": false,
      "inputs": [
        {
          "indexed": true,
          "internalType": "address",
          "name": "owner",
          "type": "address"
        },
        {
          "indexed": true,
          "internalType": "address",
          "name": "approved",
          "type": "address"
        },
        {
          "indexed": true,
          "internalType": "uint256",
          "name": "tokenId",
          "type": "uint256"
        }
      ],
      "name": "Approval",
      "type": "event"
    },
    {
      "anonymous": false,
      "inputs": [
        {
          "indexed": true,
          "internalType": "address",
          "name": "owner",
          "type": "address"
        },
        {
          "indexed": true,
          "internalType": "address",
          "name": "operator",
          "type": "address"
        },
        {
          "indexed": false,
          "internalType": "bool",
          "name": "approved",
          "type": "bool"
        }
      ],
      "name": "ApprovalForAll",
      "type": "event"
    },
    {
      "anonymous": false,
      "inputs": [
        {
          "indexed": true,
          "internalType": "address",
          "name": "previousOwner",
          "type": "address"
        },
        {
          "indexed": true,
          "internalType": "address",
          "name": "newOwner",
          "type": "address"
        }
      ],
      "name": "OwnershipTransferred",
      "type": "event"
    },
    {
      "anonymous": false,
      "inputs": [
        {
          "indexed": true,
          "internalType": "uint256",
          "name": "streamerId",
          "type": "uint256"
        },
        {
          "indexed": false,
          "internalType": "uint256",
          "name": "amount",
          "type": "uint256"
        }
      ],
      "name": "SimpPowerup",
      "type": "event"
    },
    {
      "anonymous": false,
      "inputs": [
        {
          "indexed": true,
          "internalType": "address",
          "name": "from",
          "type": "address"
        },
        {
          "indexed": true,
          "internalType": "address",
          "name": "to",
          "type": "address"
        },
        {
          "indexed": true,
          "internalType": "uint256",
          "name": "tokenId",
          "type": "uint256"
        }
      ],
      "name": "Transfer",
      "type": "event"
    },
    {
      "stateMutability": "payable",
      "type": "fallback"
    },
    {
      "inputs": [],
      "name": "SECONDS_IN_A_DAY",
      "outputs": [
        {
          "internalType": "uint256",
          "name": "",
          "type": "uint256"
        }
      ],
      "stateMutability": "view",
      "type": "function"
    },
    {
      "inputs": [
        {
          "internalType": "address",
          "name": "to",
          "type": "address"
        },
        {
          "internalType": "uint256",
          "name": "tokenId",
          "type": "uint256"
        }
      ],
      "name": "approve",
      "outputs": [],
      "stateMutability": "nonpayable",
      "type": "function"
    },
    {
      "inputs": [
        {
          "internalType": "address",
          "name": "owner",
          "type": "address"
        }
      ],
      "name": "balanceOf",
      "outputs": [
        {
          "internalType": "uint256",
          "name": "",
          "type": "uint256"
        }
      ],
      "stateMutability": "view",
      "type": "function"
    },
    {
      "inputs": [],
      "name": "baseURI",
      "outputs": [
        {
          "internalType": "string",
          "name": "",
          "type": "string"
        }
      ],
      "stateMutability": "view",
      "type": "function"
    },
    {
      "inputs": [],
      "name": "contractURI",
      "outputs": [
        {
          "internalType": "string",
          "name": "",
          "type": "string"
        }
      ],
      "stateMutability": "view",
      "type": "function"
    },
    {
      "inputs": [
        {
          "internalType": "uint256",
          "name": "tokenId",
          "type": "uint256"
        }
      ],
      "name": "getApproved",
      "outputs": [
        {
          "internalType": "address",
          "name": "",
          "type": "address"
        }
      ],
      "stateMutability": "view",
      "type": "function"
    },
    {
      "inputs": [
        {
          "internalType": "uint256",
          "name": "simpId",
          "type": "uint256"
        }
      ],
      "name": "getPowerlevel",
      "outputs": [
        {
          "internalType": "uint256",
          "name": "",
          "type": "uint256"
        }
      ],
      "stateMutability": "view",
      "type": "function"
    },
    {
      "inputs": [
        {
          "internalType": "address",
          "name": "owner",
          "type": "address"
        },
        {
          "internalType": "address",
          "name": "operator",
          "type": "address"
        }
      ],
      "name": "isApprovedForAll",
      "outputs": [
        {
          "internalType": "bool",
          "name": "",
          "type": "bool"
        }
      ],
      "stateMutability": "view",
      "type": "function"
    },
    {
      "inputs": [],
      "name": "lastPurchase",
      "outputs": [
        {
          "internalType": "uint256",
          "name": "",
          "type": "uint256"
        }
      ],
      "stateMutability": "view",
      "type": "function"
    },
    {
      "inputs": [
        {
          "internalType": "uint256",
          "name": "streamerId",
          "type": "uint256"
        }
      ],
      "name": "mint",
      "outputs": [],
      "stateMutability": "payable",
      "type": "function"
    },
    {
      "inputs": [
        {
          "internalType": "uint256",
          "name": "simpId",
          "type": "uint256"
        }
      ],
      "name": "mintedTimestamp",
      "outputs": [
        {
          "internalType": "uint256",
          "name": "",
          "type": "uint256"
        }
      ],
      "stateMutability": "view",
      "type": "function"
    },
    {
      "inputs": [],
      "name": "name",
      "outputs": [
        {
          "internalType": "string",
          "name": "",
          "type": "string"
        }
      ],
      "stateMutability": "view",
      "type": "function"
    },
    {
      "inputs": [],
      "name": "nextPrice",
      "outputs": [
        {
          "internalType": "uint256",
          "name": "",
          "type": "uint256"
        }
      ],
      "stateMutability": "view",
      "type": "function"
    },
    {
      "inputs": [],
      "name": "owner",
      "outputs": [
        {
          "internalType": "address",
          "name": "",
          "type": "address"
        }
      ],
      "stateMutability": "view",
      "type": "function"
    },
    {
      "inputs": [
        {
          "internalType": "uint256",
          "name": "tokenId",
          "type": "uint256"
        }
      ],
      "name": "ownerOf",
      "outputs": [
        {
          "internalType": "address",
          "name": "",
          "type": "address"
        }
      ],
      "stateMutability": "view",
      "type": "function"
    },
    {
      "inputs": [
        {
          "internalType": "uint256",
          "name": "",
          "type": "uint256"
        }
      ],
      "name": "powerlevels",
      "outputs": [
        {
          "internalType": "uint256",
          "name": "",
          "type": "uint256"
        }
      ],
      "stateMutability": "view",
      "type": "function"
    },
    {
      "inputs": [
        {
          "internalType": "uint256",
          "name": "simpId",
          "type": "uint256"
        },
        {
          "internalType": "uint256",
          "name": "amount",
          "type": "uint256"
        }
      ],
      "name": "powerup",
      "outputs": [],
      "stateMutability": "nonpayable",
      "type": "function"
    },
    {
      "inputs": [
        {
          "internalType": "uint256",
          "name": "simpId",
          "type": "uint256"
        }
      ],
      "name": "powerupAccepted",
      "outputs": [
        {
          "internalType": "bool",
          "name": "",
          "type": "bool"
        }
      ],
      "stateMutability": "view",
      "type": "function"
    },
    {
      "inputs": [
        {
          "internalType": "uint256",
          "name": "",
          "type": "uint256"
        }
      ],
      "name": "powerupsAccepted",
      "outputs": [
        {
          "internalType": "bool",
          "name": "",
          "type": "bool"
        }
      ],
      "stateMutability": "view",
      "type": "function"
    },
    {
      "inputs": [],
      "name": "price",
      "outputs": [
        {
          "internalType": "uint256",
          "name": "",
          "type": "uint256"
        }
      ],
      "stateMutability": "view",
      "type": "function"
    },
    {
      "inputs": [],
      "name": "proxyRegistryAddress",
      "outputs": [
        {
          "internalType": "address",
          "name": "",
          "type": "address"
        }
      ],
      "stateMutability": "view",
      "type": "function"
    },
    {
      "inputs": [],
      "name": "renounceOwnership",
      "outputs": [],
      "stateMutability": "nonpayable",
      "type": "function"
    },
    {
      "inputs": [
        {
          "internalType": "address",
          "name": "from",
          "type": "address"
        },
        {
          "internalType": "address",
          "name": "to",
          "type": "address"
        },
        {
          "internalType": "uint256",
          "name": "tokenId",
          "type": "uint256"
        }
      ],
      "name": "safeTransferFrom",
      "outputs": [],
      "stateMutability": "nonpayable",
      "type": "function"
    },
    {
      "inputs": [
        {
          "internalType": "address",
          "name": "from",
          "type": "address"
        },
        {
          "internalType": "address",
          "name": "to",
          "type": "address"
        },
        {
          "internalType": "uint256",
          "name": "tokenId",
          "type": "uint256"
        },
        {
          "internalType": "bytes",
          "name": "_data",
          "type": "bytes"
        }
      ],
      "name": "safeTransferFrom",
      "outputs": [],
      "stateMutability": "nonpayable",
      "type": "function"
    },
    {
      "inputs": [
        {
          "internalType": "address",
          "name": "operator",
          "type": "address"
        },
        {
          "internalType": "bool",
          "name": "approved",
          "type": "bool"
        }
      ],
      "name": "setApprovalForAll",
      "outputs": [],
      "stateMutability": "nonpayable",
      "type": "function"
    },
    {
      "inputs": [
        {
          "internalType": "string",
          "name": "newURI",
          "type": "string"
        }
      ],
      "name": "setBaseURI",
      "outputs": [],
      "stateMutability": "nonpayable",
      "type": "function"
    },
    {
      "inputs": [
        {
          "internalType": "string",
          "name": "newURI",
          "type": "string"
        }
      ],
      "name": "setContractURI",
      "outputs": [],
      "stateMutability": "nonpayable",
      "type": "function"
    },
    {
      "inputs": [
        {
          "internalType": "uint256",
          "name": "simpId",
          "type": "uint256"
        },
        {
          "internalType": "bool",
          "name": "allowed",
          "type": "bool"
        }
      ],
      "name": "setPowerupAccepted",
      "outputs": [],
      "stateMutability": "nonpayable",
      "type": "function"
    },
    {
      "inputs": [
        {
          "internalType": "bytes4",
          "name": "interfaceId",
          "type": "bytes4"
        }
      ],
      "name": "supportsInterface",
      "outputs": [
        {
          "internalType": "bool",
          "name": "",
          "type": "bool"
        }
      ],
      "stateMutability": "view",
      "type": "function"
    },
    {
      "inputs": [],
      "name": "symbol",
      "outputs": [
        {
          "internalType": "string",
          "name": "",
          "type": "string"
        }
      ],
      "stateMutability": "view",
      "type": "function"
    },
    {
      "inputs": [
        {
          "internalType": "uint256",
          "name": "",
          "type": "uint256"
        }
      ],
      "name": "timestamps",
      "outputs": [
        {
          "internalType": "uint256",
          "name": "",
          "type": "uint256"
        }
      ],
      "stateMutability": "view",
      "type": "function"
    },
    {
      "inputs": [],
      "name": "tokenAddress",
      "outputs": [
        {
          "internalType": "address",
          "name": "",
          "type": "address"
        }
      ],
      "stateMutability": "view",
      "type": "function"
    },
    {
      "inputs": [
        {
          "internalType": "uint256",
          "name": "index",
          "type": "uint256"
        }
      ],
      "name": "tokenByIndex",
      "outputs": [
        {
          "internalType": "uint256",
          "name": "",
          "type": "uint256"
        }
      ],
      "stateMutability": "view",
      "type": "function"
    },
    {
      "inputs": [
        {
          "internalType": "address",
          "name": "owner",
          "type": "address"
        },
        {
          "internalType": "uint256",
          "name": "index",
          "type": "uint256"
        }
      ],
      "name": "tokenOfOwnerByIndex",
      "outputs": [
        {
          "internalType": "uint256",
          "name": "",
          "type": "uint256"
        }
      ],
      "stateMutability": "view",
      "type": "function"
    },
    {
      "inputs": [
        {
          "internalType": "uint256",
          "name": "tokenId",
          "type": "uint256"
        }
      ],
      "name": "tokenURI",
      "outputs": [
        {
          "internalType": "string",
          "name": "",
          "type": "string"
        }
      ],
      "stateMutability": "view",
      "type": "function"
    },
    {
      "inputs": [],
      "name": "totalSupply",
      "outputs": [
        {
          "internalType": "uint256",
          "name": "",
          "type": "uint256"
        }
      ],
      "stateMutability": "view",
      "type": "function"
    },
    {
      "inputs": [
        {
          "internalType": "address",
          "name": "from",
          "type": "address"
        },
        {
          "internalType": "address",
          "name": "to",
          "type": "address"
        },
        {
          "internalType": "uint256",
          "name": "tokenId",
          "type": "uint256"
        }
      ],
      "name": "transferFrom",
      "outputs": [],
      "stateMutability": "nonpayable",
      "type": "function"
    },
    {
      "inputs": [
        {
          "internalType": "address",
          "name": "newOwner",
          "type": "address"
        }
      ],
      "name": "transferOwnership",
      "outputs": [],
      "stateMutability": "nonpayable",
      "type": "function"
    },
    {
      "inputs": [],
      "name": "withdraw",
      "outputs": [],
      "stateMutability": "nonpayable",
      "type": "function"
    }
  ],
  "bytecode": "0x6080604052620d2f00600b55670de0b6b3a7640000600c5542600d5573f57b2c51ded3a29e6891aba85459d600256cf317601360006101000a81548173ffffffffffffffffffffffffffffffffffffffff021916908373ffffffffffffffffffffffffffffffffffffffff1602179055506040518060400160405280601881526020017f68747470733a2f2f73696d70776172732e6c6f63612e6c74000000000000000081525060149080519060200190620000bd92919062000452565b50348015620000cb57600080fd5b506040516200486b3803806200486b83398181016040526020811015620000f157600080fd5b81019080805190602001909291905050506040518060400160405280600881526020017f53696d70576172730000000000000000000000000000000000000000000000008152506040518060400160405280600581526020017f53494d5053000000000000000000000000000000000000000000000000000000815250620001866301ffc9a760e01b6200032560201b60201c565b81600690805190602001906200019e92919062000452565b508060079080519060200190620001b792919062000452565b50620001d06380ac58cd60e01b6200032560201b60201c565b620001e8635b5e139f60e01b6200032560201b60201c565b6200020063780e9d6360e01b6200032560201b60201c565b50506000620002146200042e60201b60201c565b905080600a60006101000a81548173ffffffffffffffffffffffffffffffffffffffff021916908373ffffffffffffffffffffffffffffffffffffffff1602179055508073ffffffffffffffffffffffffffffffffffffffff16600073ffffffffffffffffffffffffffffffffffffffff167f8be0079c531659141344cd1fd0a4f28419497f9722a3daafe3b4186f6b6457e060405160405180910390a35080601260006101000a81548173ffffffffffffffffffffffffffffffffffffffff021916908373ffffffffffffffffffffffffffffffffffffffff1602179055506200031e60405180606001604052806029815260200162004842602991396200043660201b60201c565b50620004f8565b63ffffffff60e01b817bffffffffffffffffffffffffffffffffffffffffffffffffffffffff19161415620003c2576040517f08c379a000000000000000000000000000000000000000000000000000000000815260040180806020018281038252601c8152602001807f4552433136353a20696e76616c696420696e746572666163652069640000000081525060200191505060405180910390fd5b6001600080837bffffffffffffffffffffffffffffffffffffffffffffffffffffffff19167bffffffffffffffffffffffffffffffffffffffffffffffffffffffff1916815260200190815260200160002060006101000a81548160ff02191690831515021790555050565b600033905090565b80600990805190602001906200044e92919062000452565b5050565b828054600181600116156101000203166002900490600052602060002090601f016020900481019282601f106200049557805160ff1916838001178555620004c6565b82800160010185558215620004c6579182015b82811115620004c5578251825591602001919060010190620004a8565b5b509050620004d59190620004d9565b5090565b5b80821115620004f4576000816000905550600101620004da565b5090565b61433a80620005086000396000f3fe6080604052600436106102345760003560e01c8063715018a61161012e578063b88d4fde116100ab578063e985e9c51161006f578063e985e9c514610f94578063ef9089d61461101b578063f2fde38b14611046578063f9cfa06f14611097578063fce9fd46146110c257610235565b8063b88d4fde14610cb8578063c5215c0c14610dca578063c87b56dd14610e0f578063cd7c032614610ec3578063e8a3d48514610f0457610235565b806395d89b41116100f257806395d89b4114610b315780639d76ea5814610bc1578063a035b1fe14610c02578063a0712d6814610c2d578063a22cb46514610c5b57610235565b8063715018a6146109735780638bc33af31461098a5780638da5cb5b146109d9578063938e3d7b14610a1a5780639412cbe014610ae257610235565b80632f745c59116101bc5780634f6ccce7116101805780634f6ccce71461070257806355f804b3146107515780636352211e146108195780636c0360eb1461087e57806370a082311461090e57610235565b80632f745c591461058f5780633ccfd60b146105fe57806341ddd23a1461061557806342842e0e1461065c5780634528f3ec146106d757610235565b8063081812fc11610203578063081812fc146103da578063095ea7b31461043f57806312d9f50a1461049a57806318160ddd146104e957806323b872dd1461051457610235565b806301ffc9a71461023a57806302fb065f146102aa57806306d94d7a146102fb57806306fdde031461034a57610235565b5b600080fd5b34801561024657600080fd5b506102926004803603602081101561025d57600080fd5b8101908080357bffffffffffffffffffffffffffffffffffffffffffffffffffffffff19169060200190929190505050611113565b60405180821515815260200191505060405180910390f35b3480156102b657600080fd5b506102e3600480360360208110156102cd57600080fd5b810190808035906020019092919050505061117a565b60405180821515815260200191505060405180910390f35b34801561030757600080fd5b506103346004803603602081101561031e57600080fd5b810190808035906020019092919050505061119a565b6040518082815260200191505060405180910390f35b34801561035657600080fd5b5061035f6111b7565b6040518080602001828103825283818151815260200191508051906020019080838360005b8381101561039f578082015181840152602081019050610384565b50505050905090810190601f1680156103cc5780820380516001836020036101000a031916815260200191505b509250505060405180910390f35b3480156103e657600080fd5b50610413600480360360208110156103fd57600080fd5b8101908080359060200190929190505050611259565b604051808273ffffffffffffffffffffffffffffffffffffffff16815260200191505060405180910390f35b34801561044b57600080fd5b506104986004803603604081101561046257600080fd5b81019080803573ffffffffffffffffffffffffffffffffffffffff169060200190929190803590602001909291905050506112f4565b005b3480156104a657600080fd5b506104d3600480360360208110156104bd57600080fd5b8101908080359060200190929190505050611438565b6040518082815260200191505060405180910390f35b3480156104f557600080fd5b506104fe611455565b6040518082815260200191505060405180910390f35b34801561052057600080fd5b5061058d6004803603606081101561053757600080fd5b81019080803573ffffffffffffffffffffffffffffffffffffffff169060200190929190803573ffffffffffffffffffffffffffffffffffffffff16906020019092919080359060200190929190505050611466565b005b34801561059b57600080fd5b506105e8600480360360408110156105b257600080fd5b81019080803573ffffffffffffffffffffffffffffffffffffffff169060200190929190803590602001909291905050506114dc565b6040518082815260200191505060405180910390f35b34801561060a57600080fd5b50610613611537565b005b34801561062157600080fd5b5061065a6004803603604081101561063857600080fd5b8101908080359060200190929190803515159060200190929190505050611650565b005b34801561066857600080fd5b506106d56004803603606081101561067f57600080fd5b81019080803573ffffffffffffffffffffffffffffffffffffffff169060200190929190803573ffffffffffffffffffffffffffffffffffffffff169060200190929190803590602001909291905050506116bf565b005b3480156106e357600080fd5b506106ec6116df565b6040518082815260200191505060405180910390f35b34801561070e57600080fd5b5061073b6004803603602081101561072557600080fd5b81019080803590602001909291905050506116e5565b6040518082815260200191505060405180910390f35b34801561075d57600080fd5b506108176004803603602081101561077457600080fd5b810190808035906020019064010000000081111561079157600080fd5b8201836020820111156107a357600080fd5b803590602001918460018302840111640100000000831117156107c557600080fd5b91908080601f016020809104026020016040519081016040528093929190818152602001838380828437600081840152601f19601f820116905080830192505050505050509192919290505050611708565b005b34801561082557600080fd5b506108526004803603602081101561083c57600080fd5b81019080803590602001909291905050506117de565b604051808273ffffffffffffffffffffffffffffffffffffffff16815260200191505060405180910390f35b34801561088a57600080fd5b50610893611815565b6040518080602001828103825283818151815260200191508051906020019080838360005b838110156108d35780820151818401526020810190506108b8565b50505050905090810190601f1680156109005780820380516001836020036101000a031916815260200191505b509250505060405180910390f35b34801561091a57600080fd5b5061095d6004803603602081101561093157600080fd5b81019080803573ffffffffffffffffffffffffffffffffffffffff1690602001909291905050506118b7565b6040518082815260200191505060405180910390f35b34801561097f57600080fd5b5061098861198c565b005b34801561099657600080fd5b506109c3600480360360208110156109ad57600080fd5b8101908080359060200190929190505050611b17565b6040518082815260200191505060405180910390f35b3480156109e557600080fd5b506109ee611b2f565b604051808273ffffffffffffffffffffffffffffffffffffffff16815260200191505060405180910390f35b348015610a2657600080fd5b50610ae060048036036020811015610a3d57600080fd5b8101908080359060200190640100000000811115610a5a57600080fd5b820183602082011115610a6c57600080fd5b80359060200191846001830284011164010000000083111715610a8e57600080fd5b91908080601f016020809104026020016040519081016040528093929190818152602001838380828437600081840152601f19601f820116905080830192505050505050509192919290505050611b59565b005b348015610aee57600080fd5b50610b1b60048036036020811015610b0557600080fd5b8101908080359060200190929190505050611c3d565b6040518082815260200191505060405180910390f35b348015610b3d57600080fd5b50610b46611c55565b6040518080602001828103825283818151815260200191508051906020019080838360005b83811015610b86578082015181840152602081019050610b6b565b50505050905090810190601f168015610bb35780820380516001836020036101000a031916815260200191505b509250505060405180910390f35b348015610bcd57600080fd5b50610bd6611cf7565b604051808273ffffffffffffffffffffffffffffffffffffffff16815260200191505060405180910390f35b348015610c0e57600080fd5b50610c17611d1d565b6040518082815260200191505060405180910390f35b610c5960048036036020811015610c4357600080fd5b8101908080359060200190929190505050611d83565b005b348015610c6757600080fd5b50610cb660048036036040811015610c7e57600080fd5b81019080803573ffffffffffffffffffffffffffffffffffffffff169060200190929190803515159060200190929190505050611e8f565b005b348015610cc457600080fd5b50610dc860048036036080811015610cdb57600080fd5b81019080803573ffffffffffffffffffffffffffffffffffffffff169060200190929190803573ffffffffffffffffffffffffffffffffffffffff1690602001909291908035906020019092919080359060200190640100000000811115610d4257600080fd5b820183602082011115610d5457600080fd5b80359060200191846001830284011164010000000083111715610d7657600080fd5b91908080601f016020809104026020016040519081016040528093929190818152602001838380828437600081840152601f19601f820116905080830192505050505050509192919290505050612045565b005b348015610dd657600080fd5b50610e0d60048036036040811015610ded57600080fd5b8101908080359060200190929190803590602001909291905050506120bd565b005b348015610e1b57600080fd5b50610e4860048036036020811015610e3257600080fd5b8101908080359060200190929190505050612364565b6040518080602001828103825283818151815260200191508051906020019080838360005b83811015610e88578082015181840152602081019050610e6d565b50505050905090810190601f168015610eb55780820380516001836020036101000a031916815260200191505b509250505060405180910390f35b348015610ecf57600080fd5b50610ed861264d565b604051808273ffffffffffffffffffffffffffffffffffffffff16815260200191505060405180910390f35b348015610f1057600080fd5b50610f19612673565b6040518080602001828103825283818151815260200191508051906020019080838360005b83811015610f59578082015181840152602081019050610f3e565b50505050905090810190601f168015610f865780820380516001836020036101000a031916815260200191505b509250505060405180910390f35b348015610fa057600080fd5b5061100360048036036040811015610fb757600080fd5b81019080803573ffffffffffffffffffffffffffffffffffffffff169060200190929190803573ffffffffffffffffffffffffffffffffffffffff169060200190929190505050612711565b60405180821515815260200191505060405180910390f35b34801561102757600080fd5b5061103061282c565b6040518082815260200191505060405180910390f35b34801561105257600080fd5b506110956004803603602081101561106957600080fd5b81019080803573ffffffffffffffffffffffffffffffffffffffff169060200190929190505050612832565b005b3480156110a357600080fd5b506110ac612a42565b6040518082815260200191505060405180910390f35b3480156110ce57600080fd5b506110fb600480360360208110156110e557600080fd5b8101908080359060200190929190505050612a48565b60405180821515815260200191505060405180910390f35b6000806000837bffffffffffffffffffffffffffffffffffffffffffffffffffffffff19167bffffffffffffffffffffffffffffffffffffffffffffffffffffffff1916815260200190815260200160002060009054906101000a900460ff169050919050565b60116020528060005260406000206000915054906101000a900460ff1681565b6000600f6000838152602001908152602001600020549050919050565b606060068054600181600116156101000203166002900480601f01602080910402602001604051908101604052809291908181526020018280546001816001161561010002031660029004801561124f5780601f106112245761010080835404028352916020019161124f565b820191906000526020600020905b81548152906001019060200180831161123257829003601f168201915b5050505050905090565b600061126482612a72565b6112b9576040517f08c379a000000000000000000000000000000000000000000000000000000000815260040180806020018281038252602c81526020018061422f602c913960400191505060405180910390fd5b6004600083815260200190815260200160002060009054906101000a900473ffffffffffffffffffffffffffffffffffffffff169050919050565b60006112ff826117de565b90508073ffffffffffffffffffffffffffffffffffffffff168373ffffffffffffffffffffffffffffffffffffffff161415611386576040517f08c379a00000000000000000000000000000000000000000000000000000000081526004018080602001828103825260218152602001806142b36021913960400191505060405180910390fd5b8073ffffffffffffffffffffffffffffffffffffffff166113a5612a8f565b73ffffffffffffffffffffffffffffffffffffffff1614806113d457506113d3816113ce612a8f565b612711565b5b611429576040517f08c379a00000000000000000000000000000000000000000000000000000000081526004018080602001828103825260388152602001806141826038913960400191505060405180910390fd5b6114338383612a97565b505050565b600060106000838152602001908152602001600020549050919050565b60006114616002612b50565b905090565b611477611471612a8f565b82612b65565b6114cc576040517f08c379a00000000000000000000000000000000000000000000000000000000081526004018080602001828103825260318152602001806142d46031913960400191505060405180910390fd5b6114d7838383612c59565b505050565b600061152f82600160008673ffffffffffffffffffffffffffffffffffffffff1673ffffffffffffffffffffffffffffffffffffffff168152602001908152602001600020612e9c90919063ffffffff16565b905092915050565b61153f612a8f565b73ffffffffffffffffffffffffffffffffffffffff16600a60009054906101000a900473ffffffffffffffffffffffffffffffffffffffff1673ffffffffffffffffffffffffffffffffffffffff1614611601576040517f08c379a00000000000000000000000000000000000000000000000000000000081526004018080602001828103825260208152602001807f4f776e61626c653a2063616c6c6572206973206e6f7420746865206f776e657281525060200191505060405180910390fd5b60004790503373ffffffffffffffffffffffffffffffffffffffff166108fc829081150290604051600060405180830381858888f1935050505015801561164c573d6000803e3d6000fd5b5050565b3373ffffffffffffffffffffffffffffffffffffffff16611670836117de565b73ffffffffffffffffffffffffffffffffffffffff161461169057600080fd5b806011600084815260200190815260200160002060006101000a81548160ff0219169083151502179055505050565b6116da83838360405180602001604052806000815250612045565b505050565b600d5481565b6000806116fc836002612eb690919063ffffffff16565b50905080915050919050565b611710612a8f565b73ffffffffffffffffffffffffffffffffffffffff16600a60009054906101000a900473ffffffffffffffffffffffffffffffffffffffff1673ffffffffffffffffffffffffffffffffffffffff16146117d2576040517f08c379a00000000000000000000000000000000000000000000000000000000081526004018080602001828103825260208152602001807f4f776e61626c653a2063616c6c6572206973206e6f7420746865206f776e657281525060200191505060405180910390fd5b6117db81612ee2565b50565b600061180e826040518060600160405280602981526020016141e4602991396002612efc9092919063ffffffff16565b9050919050565b606060098054600181600116156101000203166002900480601f0160208091040260200160405190810160405280929190818152602001828054600181600116156101000203166002900480156118ad5780601f10611882576101008083540402835291602001916118ad565b820191906000526020600020905b81548152906001019060200180831161189057829003601f168201915b5050505050905090565b60008073ffffffffffffffffffffffffffffffffffffffff168273ffffffffffffffffffffffffffffffffffffffff16141561193e576040517f08c379a000000000000000000000000000000000000000000000000000000000815260040180806020018281038252602a8152602001806141ba602a913960400191505060405180910390fd5b611985600160008473ffffffffffffffffffffffffffffffffffffffff1673ffffffffffffffffffffffffffffffffffffffff168152602001908152602001600020612f1b565b9050919050565b611994612a8f565b73ffffffffffffffffffffffffffffffffffffffff16600a60009054906101000a900473ffffffffffffffffffffffffffffffffffffffff1673ffffffffffffffffffffffffffffffffffffffff1614611a56576040517f08c379a00000000000000000000000000000000000000000000000000000000081526004018080602001828103825260208152602001807f4f776e61626c653a2063616c6c6572206973206e6f7420746865206f776e657281525060200191505060405180910390fd5b600073ffffffffffffffffffffffffffffffffffffffff16600a60009054906101000a900473ffffffffffffffffffffffffffffffffffffffff1673ffffffffffffffffffffffffffffffffffffffff167f8be0079c531659141344cd1fd0a4f28419497f9722a3daafe3b4186f6b6457e060405160405180910390a36000600a60006101000a81548173ffffffffffffffffffffffffffffffffffffffff021916908373ffffffffffffffffffffffffffffffffffffffff160217905550565b60106020528060005260406000206000915090505481565b6000600a60009054906101000a900473ffffffffffffffffffffffffffffffffffffffff16905090565b611b61612a8f565b73ffffffffffffffffffffffffffffffffffffffff16600a60009054906101000a900473ffffffffffffffffffffffffffffffffffffffff1673ffffffffffffffffffffffffffffffffffffffff1614611c23576040517f08c379a00000000000000000000000000000000000000000000000000000000081526004018080602001828103825260208152602001807f4f776e61626c653a2063616c6c6572206973206e6f7420746865206f776e657281525060200191505060405180910390fd5b8060149080519060200190611c39929190613fc6565b5050565b600f6020528060005260406000206000915090505481565b606060078054600181600116156101000203166002900480601f016020809104026020016040519081016040528092919081815260200182805460018160011615610100020316600290048015611ced5780601f10611cc257610100808354040283529160200191611ced565b820191906000526020600020905b815481529060010190602001808311611cd057829003601f168201915b5050505050905090565b601260009054906101000a900473ffffffffffffffffffffffffffffffffffffffff1681565b600080611d35600d5442612f3090919063ffffffff16565b90506000811415611d4b57600c54915050611d80565b6000611d676fffff79679ff75800000000000000000083612f7a565b90506000611d77600c5483612ff6565b90508093505050505b90565b6000611d8d611d1d565b9050611d97611b2f565b73ffffffffffffffffffffffffffffffffffffffff166108fc829081150290604051600060405180830381858888f19350505050158015611ddc573d6000803e3d6000fd5b503373ffffffffffffffffffffffffffffffffffffffff166108fc611e0a8334612f3090919063ffffffff16565b9081150290604051600060405180830381858888f19350505050158015611e35573d6000803e3d6000fd5b5042601060008481526020019081526020016000208190555060028102600c81905550600e829080600181540180825580915050600190039060005260206000200160009091909190915055611e8b338361304e565b5050565b611e97612a8f565b73ffffffffffffffffffffffffffffffffffffffff168273ffffffffffffffffffffffffffffffffffffffff161415611f38576040517f08c379a00000000000000000000000000000000000000000000000000000000081526004018080602001828103825260198152602001807f4552433732313a20617070726f766520746f2063616c6c65720000000000000081525060200191505060405180910390fd5b8060056000611f45612a8f565b73ffffffffffffffffffffffffffffffffffffffff1673ffffffffffffffffffffffffffffffffffffffff16815260200190815260200160002060008473ffffffffffffffffffffffffffffffffffffffff1673ffffffffffffffffffffffffffffffffffffffff16815260200190815260200160002060006101000a81548160ff0219169083151502179055508173ffffffffffffffffffffffffffffffffffffffff16611ff2612a8f565b73ffffffffffffffffffffffffffffffffffffffff167f17307eab39ab6107e8899845ad3d59bd9653f200f220920489ca2b5937696c318360405180821515815260200191505060405180910390a35050565b612056612050612a8f565b83612b65565b6120ab576040517f08c379a00000000000000000000000000000000000000000000000000000000081526004018080602001828103825260318152602001806142d46031913960400191505060405180910390fd5b6120b784848484613242565b50505050565b3373ffffffffffffffffffffffffffffffffffffffff166120dd836117de565b73ffffffffffffffffffffffffffffffffffffffff16148061211c57506011600083815260200190815260200160002060009054906101000a900460ff165b612171576040517f08c379a000000000000000000000000000000000000000000000000000000000815260040180806020018281038252602e8152602001806140de602e913960400191505060405180910390fd5b61219781600f6000858152602001908152602001600020546132b490919063ffffffff16565b600f600084815260200190815260200160002081905550601260009054906101000a900473ffffffffffffffffffffffffffffffffffffffff1673ffffffffffffffffffffffffffffffffffffffff166323b872dd3330846040518463ffffffff1660e01b8152600401808473ffffffffffffffffffffffffffffffffffffffff1681526020018373ffffffffffffffffffffffffffffffffffffffff1681526020018281526020019350505050602060405180830381600087803b15801561225f57600080fd5b505af1158015612273573d6000803e3d6000fd5b505050506040513d602081101561228957600080fd5b810190808051906020019092919050505050601260009054906101000a900473ffffffffffffffffffffffffffffffffffffffff1673ffffffffffffffffffffffffffffffffffffffff166342966c68826040518263ffffffff1660e01b815260040180828152602001915050600060405180830381600087803b15801561231057600080fd5b505af1158015612324573d6000803e3d6000fd5b50505050817f1669bb27be8ce796b6501135447c5aba6c1ee5a7fdff6ec57d68c6e64315d8d6826040518082815260200191505060405180910390a25050565b606061236f82612a72565b6123c4576040517f08c379a000000000000000000000000000000000000000000000000000000000815260040180806020018281038252602f815260200180614284602f913960400191505060405180910390fd5b6060600860008481526020019081526020016000208054600181600116156101000203166002900480601f01602080910402602001604051908101604052809291908181526020018280546001816001161561010002031660029004801561246d5780601f106124425761010080835404028352916020019161246d565b820191906000526020600020905b81548152906001019060200180831161245057829003601f168201915b5050505050905060006009805460018160011615610100020316600290049050141561249c5780915050612648565b6000815111156125755760098160405160200180838054600181600116156101000203166002900480156125075780601f106124e5576101008083540402835291820191612507565b820191906000526020600020905b8154815290600101906020018083116124f3575b505082805190602001908083835b602083106125385780518252602082019150602081019050602083039250612515565b6001836020036101000a03801982511681845116808217855250505050505090500192505050604051602081830303815290604052915050612648565b60096125808461333c565b60405160200180838054600181600116156101000203166002900480156125de5780601f106125bc5761010080835404028352918201916125de565b820191906000526020600020905b8154815290600101906020018083116125ca575b505082805190602001908083835b6020831061260f57805182526020820191506020810190506020830392506125ec565b6001836020036101000a038019825116818451168082178552505050505050905001925050506040516020818303038152906040529150505b919050565b601360009054906101000a900473ffffffffffffffffffffffffffffffffffffffff1681565b60148054600181600116156101000203166002900480601f0160208091040260200160405190810160405280929190818152602001828054600181600116156101000203166002900480156127095780601f106126de57610100808354040283529160200191612709565b820191906000526020600020905b8154815290600101906020018083116126ec57829003601f168201915b505050505081565b600080601360009054906101000a900473ffffffffffffffffffffffffffffffffffffffff1690508273ffffffffffffffffffffffffffffffffffffffff168173ffffffffffffffffffffffffffffffffffffffff1663c4552791866040518263ffffffff1660e01b8152600401808273ffffffffffffffffffffffffffffffffffffffff16815260200191505060206040518083038186803b1580156127b757600080fd5b505afa1580156127cb573d6000803e3d6000fd5b505050506040513d60208110156127e157600080fd5b810190808051906020019092919050505073ffffffffffffffffffffffffffffffffffffffff161415612818576001915050612826565b6128228484613483565b9150505b92915050565b600c5481565b61283a612a8f565b73ffffffffffffffffffffffffffffffffffffffff16600a60009054906101000a900473ffffffffffffffffffffffffffffffffffffffff1673ffffffffffffffffffffffffffffffffffffffff16146128fc576040517f08c379a00000000000000000000000000000000000000000000000000000000081526004018080602001828103825260208152602001807f4f776e61626c653a2063616c6c6572206973206e6f7420746865206f776e657281525060200191505060405180910390fd5b600073ffffffffffffffffffffffffffffffffffffffff168173ffffffffffffffffffffffffffffffffffffffff161415612982576040517f08c379a00000000000000000000000000000000000000000000000000000000081526004018080602001828103825260268152602001806140b86026913960400191505060405180910390fd5b8073ffffffffffffffffffffffffffffffffffffffff16600a60009054906101000a900473ffffffffffffffffffffffffffffffffffffffff1673ffffffffffffffffffffffffffffffffffffffff167f8be0079c531659141344cd1fd0a4f28419497f9722a3daafe3b4186f6b6457e060405160405180910390a380600a60006101000a81548173ffffffffffffffffffffffffffffffffffffffff021916908373ffffffffffffffffffffffffffffffffffffffff16021790555050565b600b5481565b60006011600083815260200190815260200160002060009054906101000a900460ff169050919050565b6000612a8882600261351790919063ffffffff16565b9050919050565b600033905090565b816004600083815260200190815260200160002060006101000a81548173ffffffffffffffffffffffffffffffffffffffff021916908373ffffffffffffffffffffffffffffffffffffffff160217905550808273ffffffffffffffffffffffffffffffffffffffff16612b0a836117de565b73ffffffffffffffffffffffffffffffffffffffff167f8c5be1e5ebec7d5bd14f71427d1e84f3dd0314c0f7b2291e5b200ac8c7c3b92560405160405180910390a45050565b6000612b5e82600001613531565b9050919050565b6000612b7082612a72565b612bc5576040517f08c379a000000000000000000000000000000000000000000000000000000000815260040180806020018281038252602c815260200180614156602c913960400191505060405180910390fd5b6000612bd0836117de565b90508073ffffffffffffffffffffffffffffffffffffffff168473ffffffffffffffffffffffffffffffffffffffff161480612c3f57508373ffffffffffffffffffffffffffffffffffffffff16612c2784611259565b73ffffffffffffffffffffffffffffffffffffffff16145b80612c505750612c4f8185612711565b5b91505092915050565b8273ffffffffffffffffffffffffffffffffffffffff16612c79826117de565b73ffffffffffffffffffffffffffffffffffffffff1614612ce5576040517f08c379a000000000000000000000000000000000000000000000000000000000815260040180806020018281038252602981526020018061425b6029913960400191505060405180910390fd5b600073ffffffffffffffffffffffffffffffffffffffff168273ffffffffffffffffffffffffffffffffffffffff161415612d6b576040517f08c379a000000000000000000000000000000000000000000000000000000000815260040180806020018281038252602481526020018061410c6024913960400191505060405180910390fd5b612d76838383613542565b612d81600082612a97565b612dd281600160008673ffffffffffffffffffffffffffffffffffffffff1673ffffffffffffffffffffffffffffffffffffffff16815260200190815260200160002061354790919063ffffffff16565b50612e2481600160008573ffffffffffffffffffffffffffffffffffffffff1673ffffffffffffffffffffffffffffffffffffffff16815260200190815260200160002061356190919063ffffffff16565b50612e3b8183600261357b9092919063ffffffff16565b50808273ffffffffffffffffffffffffffffffffffffffff168473ffffffffffffffffffffffffffffffffffffffff167fddf252ad1be2c89b69c2b068fc378daa952ba7f163c4a11628f55a4df523b3ef60405160405180910390a4505050565b6000612eab83600001836135b0565b60001c905092915050565b600080600080612ec98660000186613633565b915091508160001c8160001c9350935050509250929050565b8060099080519060200190612ef8929190613fc6565b5050565b6000612f0f846000018460001b846136cc565b60001c90509392505050565b6000612f29826000016137c2565b9050919050565b6000612f7283836040518060400160405280601e81526020017f536166654d6174683a207375627472616374696f6e206f766572666c6f7700008152506137d3565b905092915050565b60007001000000000000000000000000000000008310612f9657fe5b70010000000000000000000000000000000090505b6000821115612ff0576000600183161415612fd857612fca8384612ff6565b9250600182901c9150612feb565b612fe28184612ff6565b90506001820391505b612fab565b92915050565b600070010000000000000000000000000000000083111561301357fe5b700100000000000000000000000000000000821061302d57fe5b60806f8000000000000000000000000000000083850201901c905092915050565b600073ffffffffffffffffffffffffffffffffffffffff168273ffffffffffffffffffffffffffffffffffffffff1614156130f1576040517f08c379a00000000000000000000000000000000000000000000000000000000081526004018080602001828103825260208152602001807f4552433732313a206d696e7420746f20746865207a65726f206164647265737381525060200191505060405180910390fd5b6130fa81612a72565b1561316d576040517f08c379a000000000000000000000000000000000000000000000000000000000815260040180806020018281038252601c8152602001807f4552433732313a20746f6b656e20616c7265616479206d696e7465640000000081525060200191505060405180910390fd5b61317960008383613542565b6131ca81600160008573ffffffffffffffffffffffffffffffffffffffff1673ffffffffffffffffffffffffffffffffffffffff16815260200190815260200160002061356190919063ffffffff16565b506131e18183600261357b9092919063ffffffff16565b50808273ffffffffffffffffffffffffffffffffffffffff16600073ffffffffffffffffffffffffffffffffffffffff167fddf252ad1be2c89b69c2b068fc378daa952ba7f163c4a11628f55a4df523b3ef60405160405180910390a45050565b61324d848484612c59565b61325984848484613893565b6132ae576040517f08c379a00000000000000000000000000000000000000000000000000000000081526004018080602001828103825260328152602001806140866032913960400191505060405180910390fd5b50505050565b600080828401905083811015613332576040517f08c379a000000000000000000000000000000000000000000000000000000000815260040180806020018281038252601b8152602001807f536166654d6174683a206164646974696f6e206f766572666c6f77000000000081525060200191505060405180910390fd5b8091505092915050565b60606000821415613384576040518060400160405280600181526020017f3000000000000000000000000000000000000000000000000000000000000000815250905061347e565b600082905060005b600082146133ae578080600101915050600a82816133a657fe5b04915061338c565b60608167ffffffffffffffff811180156133c757600080fd5b506040519080825280601f01601f1916602001820160405280156133fa5781602001600182028036833780820191505090505b50905060006001830390508593505b6000841461347657600a848161341b57fe5b0660300160f81b8282806001900393508151811061343557fe5b60200101907effffffffffffffffffffffffffffffffffffffffffffffffffffffffffffff1916908160001a905350600a848161346e57fe5b049350613409565b819450505050505b919050565b6000600560008473ffffffffffffffffffffffffffffffffffffffff1673ffffffffffffffffffffffffffffffffffffffff16815260200190815260200160002060008373ffffffffffffffffffffffffffffffffffffffff1673ffffffffffffffffffffffffffffffffffffffff16815260200190815260200160002060009054906101000a900460ff16905092915050565b6000613529836000018360001b613aac565b905092915050565b600081600001805490509050919050565b505050565b6000613559836000018360001b613acf565b905092915050565b6000613573836000018360001b613bb7565b905092915050565b60006135a7846000018460001b8473ffffffffffffffffffffffffffffffffffffffff1660001b613c27565b90509392505050565b600081836000018054905011613611576040517f08c379a00000000000000000000000000000000000000000000000000000000081526004018080602001828103825260228152602001806140646022913960400191505060405180910390fd5b82600001828154811061362057fe5b9060005260206000200154905092915050565b60008082846000018054905011613695576040517f08c379a000000000000000000000000000000000000000000000000000000000815260040180806020018281038252602281526020018061420d6022913960400191505060405180910390fd5b60008460000184815481106136a657fe5b906000526020600020906002020190508060000154816001015492509250509250929050565b60008084600101600085815260200190815260200160002054905060008114158390613793576040517f08c379a00000000000000000000000000000000000000000000000000000000081526004018080602001828103825283818151815260200191508051906020019080838360005b8381101561375857808201518184015260208101905061373d565b50505050905090810190601f1680156137855780820380516001836020036101000a031916815260200191505b509250505060405180910390fd5b508460000160018203815481106137a657fe5b9060005260206000209060020201600101549150509392505050565b600081600001805490509050919050565b6000838311158290613880576040517f08c379a00000000000000000000000000000000000000000000000000000000081526004018080602001828103825283818151815260200191508051906020019080838360005b8381101561384557808201518184015260208101905061382a565b50505050905090810190601f1680156138725780820380516001836020036101000a031916815260200191505b509250505060405180910390fd5b5060008385039050809150509392505050565b60006138b48473ffffffffffffffffffffffffffffffffffffffff16613d03565b6138c15760019050613aa4565b6060613a2b63150b7a0260e01b6138d6612a8f565b888787604051602401808573ffffffffffffffffffffffffffffffffffffffff1681526020018473ffffffffffffffffffffffffffffffffffffffff16815260200183815260200180602001828103825283818151815260200191508051906020019080838360005b8381101561395a57808201518184015260208101905061393f565b50505050905090810190601f1680156139875780820380516001836020036101000a031916815260200191505b5095505050505050604051602081830303815290604052907bffffffffffffffffffffffffffffffffffffffffffffffffffffffff19166020820180517bffffffffffffffffffffffffffffffffffffffffffffffffffffffff8381831617835250505050604051806060016040528060328152602001614086603291398773ffffffffffffffffffffffffffffffffffffffff16613d169092919063ffffffff16565b90506000818060200190516020811015613a4457600080fd5b8101908080519060200190929190505050905063150b7a0260e01b7bffffffffffffffffffffffffffffffffffffffffffffffffffffffff1916817bffffffffffffffffffffffffffffffffffffffffffffffffffffffff191614925050505b949350505050565b600080836001016000848152602001908152602001600020541415905092915050565b60008083600101600084815260200190815260200160002054905060008114613bab5760006001820390506000600186600001805490500390506000866000018281548110613b1a57fe5b9060005260206000200154905080876000018481548110613b3757fe5b9060005260206000200181905550600183018760010160008381526020019081526020016000208190555086600001805480613b6f57fe5b60019003818190600052602060002001600090559055866001016000878152602001908152602001600020600090556001945050505050613bb1565b60009150505b92915050565b6000613bc38383613d2e565b613c1c578260000182908060018154018082558091505060019003906000526020600020016000909190919091505582600001805490508360010160008481526020019081526020016000208190555060019050613c21565b600090505b92915050565b6000808460010160008581526020019081526020016000205490506000811415613cce57846000016040518060400160405280868152602001858152509080600181540180825580915050600190039060005260206000209060020201600090919091909150600082015181600001556020820151816001015550508460000180549050856001016000868152602001908152602001600020819055506001915050613cfc565b82856000016001830381548110613ce157fe5b90600052602060002090600202016001018190555060009150505b9392505050565b600080823b905060008111915050919050565b6060613d258484600085613d51565b90509392505050565b600080836001016000848152602001908152602001600020541415905092915050565b606082471015613dac576040517f08c379a00000000000000000000000000000000000000000000000000000000081526004018080602001828103825260268152602001806141306026913960400191505060405180910390fd5b613db585613d03565b613e27576040517f08c379a000000000000000000000000000000000000000000000000000000000815260040180806020018281038252601d8152602001807f416464726573733a2063616c6c20746f206e6f6e2d636f6e747261637400000081525060200191505060405180910390fd5b600060608673ffffffffffffffffffffffffffffffffffffffff1685876040518082805190602001908083835b60208310613e775780518252602082019150602081019050602083039250613e54565b6001836020036101000a03801982511681845116808217855250505050505090500191505060006040518083038185875af1925050503d8060008114613ed9576040519150601f19603f3d011682016040523d82523d6000602084013e613ede565b606091505b5091509150613eee828286613efa565b92505050949350505050565b60608315613f0a57829050613fbf565b600083511115613f1d5782518084602001fd5b816040517f08c379a00000000000000000000000000000000000000000000000000000000081526004018080602001828103825283818151815260200191508051906020019080838360005b83811015613f84578082015181840152602081019050613f69565b50505050905090810190601f168015613fb15780820380516001836020036101000a031916815260200191505b509250505060405180910390fd5b9392505050565b828054600181600116156101000203166002900490600052602060002090601f016020900481019282601f1061400757805160ff1916838001178555614035565b82800160010185558215614035579182015b82811115614034578251825591602001919060010190614019565b5b5090506140429190614046565b5090565b5b8082111561405f576000816000905550600101614047565b509056fe456e756d657261626c655365743a20696e646578206f7574206f6620626f756e64734552433732313a207472616e7366657220746f206e6f6e20455243373231526563656976657220696d706c656d656e7465724f776e61626c653a206e6577206f776e657220697320746865207a65726f2061646472657373796f7520646f6e27742068617665207065726d697373696f6e20746f20706f776572757020746869732073696d704552433732313a207472616e7366657220746f20746865207a65726f2061646472657373416464726573733a20696e73756666696369656e742062616c616e636520666f722063616c6c4552433732313a206f70657261746f7220717565727920666f72206e6f6e6578697374656e7420746f6b656e4552433732313a20617070726f76652063616c6c6572206973206e6f74206f776e6572206e6f7220617070726f76656420666f7220616c6c4552433732313a2062616c616e636520717565727920666f7220746865207a65726f20616464726573734552433732313a206f776e657220717565727920666f72206e6f6e6578697374656e7420746f6b656e456e756d657261626c654d61703a20696e646578206f7574206f6620626f756e64734552433732313a20617070726f76656420717565727920666f72206e6f6e6578697374656e7420746f6b656e4552433732313a207472616e73666572206f6620746f6b656e2074686174206973206e6f74206f776e4552433732314d657461646174613a2055524920717565727920666f72206e6f6e6578697374656e7420746f6b656e4552433732313a20617070726f76616c20746f2063757272656e74206f776e65724552433732313a207472616e736665722063616c6c6572206973206e6f74206f776e6572206e6f7220617070726f766564a2646970667358221220820cb54d9e830013e12b311a88f8e1f22efb31f7ea54012566ac4f5f3f276a0464736f6c6343000703003368747470733a2f2f73696d70776172732e6c6f63612e6c742f6d657461646174612f7477697463682f",
  "linkReferences": {},
  "deployedLinkReferences": {}
}