{
  "_format": "hh-sol-artifact-1",
  "contractName": "AltPricing",
  "sourceName": "contracts/AlternativePricing.sol",
  "abi": [
    {
      "inputs": [
        {
          "internalType": "uint256",
          "name": "simpID",
          "type": "uint256"
        }
      ],
      "name": "getPrice",
      "outputs": [
        {
          "internalType": "uint256",
          "name": "",
          "type": "uint256"
        }
      ],
      "stateMutability": "view",
      "type": "function"
    }
  ],
  "bytecode": "0x6080604052348015600f57600080fd5b5060ae8061001e6000396000f3fe6080604052348015600f57600080fd5b506004361060285760003560e01c8063e757223014602d575b600080fd5b605660048036036020811015604157600080fd5b8101908080359060200190929190505050606c565b6040518082815260200191505060405180910390f35b6000613039905091905056fea264697066735822122088f67f713a0a61090e0733cfd64b27c23ebf92542db29c1892347ca786db00c664736f6c63430007030033",
  "linkReferences": {},
  "deployedLinkReferences": {}
}